:100000000C9462000C948A000C948A000C948A0070
:100010000C948A000C948A000C948A000C948A0038
:100020000C948A000C948A000C948A000C948A0028
:100030000C948A000C948A000C948A000C948A0018
:100040000C94DA050C948A000C948A000C948A00B3
:100050000C948A000C948A000C948A000C948A00F8
:100060000C948A000C948A000000000024002700F1
:100070002A0000000000250028002B0000000000DE
:1000800023002600290004040404040404040202DA
:100090000202020203030303030301020408102007
:1000A0004080010204081020010204081020000012
:1000B0000008000201000003040700000000000027
:1000C0000000C40911241FBECFEFD8E0DEBFCDBFB2
:1000D00012E0A0E0B1E0E4E4F4E102C005900D928A
:1000E000A235B107D9F722E0A2E5B2E001C01D9226
:1000F000A538B207E1F710E0C2E6D0E004C02197CE
:10010000FE010E941A0AC136D107C9F70E942406CF
:100110000C94200A0C940000AF92BF92CF92DF9211
:10012000EF92FF920F931F93CF93DF936C017B01AC
:100130008B01040F151FEB015E01AE18BF08C0173D
:10014000D10759F06991D601ED91FC910190F081B0
:10015000E02DC6010995892B79F7C501DF91CF9173
:100160001F910F91FF90EF90DF90CF90BF90AF90D5
:100170000895833081F028F4813099F08230A9F01D
:1001800008958730A9F08830C9F08430B1F48091A7
:1001900080008F7D03C0809180008F7780938000E6
:1001A000089584B58F7784BD089584B58F7DFBCF86
:1001B0008091B0008F778093B00008958091B00057
:1001C0008F7DF9CFCF93DF93282F30E0F901E255EF
:1001D000FF4F8491F901E656FF4FD491F901EA5798
:1001E000FF4FC491CC23A1F081110E94B900EC2FE4
:1001F000F0E0EE0FFF1FE458FF4FA591B491EC9192
:10020000ED2381E090E009F480E0DF91CF91089543
:1002100080E090E0FACF1F93CF93DF93282F30E058
:10022000F901E255FF4F8491F901E656FF4FD49151
:10023000F901EA57FF4FC491CC23A9F0162F811181
:100240000E94B900EC2FF0E0EE0FFF1FEE58FF4FB9
:10025000A591B4918FB7F894EC91111108C0D09585
:10026000DE23DC938FBFDF91CF911F910895DE2BAA
:10027000F8CFCF93DF9390E0FC01E656FF4F249137
:100280008A579F4FFC0184918823D1F090E0880F1A
:10029000991FFC01E859FF4FA591B491FC01EE585C
:1002A000FF4FC591D49161110EC09FB7F8948C9106
:1002B000E22FE0958E238C932881E223E8839FBF71
:1002C000DF91CF9108958FB7F894EC91E22BEC93E6
:1002D0008FBFF6CF3FB7F89480915A0290915B029E
:1002E000A0915C02B0915D0226B5A89B05C02F3F8E
:1002F00019F00196A11DB11D3FBFBA2FA92F982F4C
:100300008827BC01CD01620F711D811D911D42E046
:10031000660F771F881F991F4A95D1F708958F920E
:100320009F92AF92BF92CF92DF92EF92FF924B01DA
:100330005C010E946A016B017C010E946A016C19D8
:100340007D098E099F09683E734081059105A8F3D8
:1003500021E0821A9108A108B10888EEC80E83E056
:10036000D81EE11CF11C81149104A104B10429F7E9
:10037000FF90EF90DF90CF90BF90AF909F908F90C5
:100380000895089590E080E0089561E08CE00E9477
:100390000B0160E08CE00E940B01E0EBF0E080815B
:1003A0008F738083089561E08CE00E940B0160E010
:1003B0008CE00E940B01E1EBF0E0808183608083A0
:1003C0000895CF92DF92EF92FF920F931F93CF93F6
:1003D000DF9310926C02D12C10925302C091530201
:1003E000C43098F50C2F10E0F801E15EFE4FC0809C
:1003F00061E08C2D0E940B0110925202D0915202AA
:10040000D330B8F4ED2EF12CF701E45EFE4F80817D
:100410000E94E2000197A9F4F801EE0FFF1FE00F20
:10042000F11FEC5FFE4FEE0DFF1DD08081E0809349
:100430006C0260E08C2D0E940B01CF5FC0935302D1
:10044000CDCFDF5FD0935202D9CF80916C02813043
:1004500019F68D2DDF91CF911F910F91FF90EF90A5
:10046000DF90CF900895CF93DF93EC0160E08E8111
:100470000E940B0161E08E810E940B0160E08E8181
:100480000E940B018BE891E00197F1F7DF91CF918A
:100490000895CF92DF92EF92FF920F931F93CF9325
:1004A000DF936C017C0187E0E80EF11CD0E0C0E036
:1004B000062F10E0B8010C2E02C0759567950A94BE
:1004C000E2F76170F70181917F010E940B01219693
:1004D000C430D10579F7C601DF91CF911F910F91FB
:1004E000FF90EF90DF90CF900C943302CF92DF9289
:1004F000EF92FF920F931F93CF93DF93EC01F62EB1
:10050000642F8C810E940B018D818F3F19F060E078
:100510000E940B010F2D10E08F8584FF25C06E0116
:1005200087E0C80ED11CF12CE12CB8010E2C02C0C2
:10053000759567950A94E2F76170F60181916F01F4
:100540000E940B01FFEFEF1AFF0A88E0E816F104A2
:1005500061F7CE01DF91CF911F910F91FF90EF9046
:10056000DF90CF900C943302B80184E075956795C5
:100570008A95E1F7CE010E9449026F2DCE01DF91ED
:10058000CF911F910F91FF90EF90DF90CF900C943F
:10059000490240E0682F8DE692E00C94760281E0FB
:1005A0000E94C9028BE39FE10197F1F70895CF9371
:1005B000DF93823029F490917C02986090937C02C2
:1005C000809380021092810280E48093820280E115
:1005D0008093830280E58093840261E080917102C0
:1005E0000E943901809172028F3F19F061E00E94F0
:1005F000390161E0809173020E943901CDE6D2E0B9
:100600009E012D56324080917C0284FD0BC084E017
:1006100090E021962817390744F461E08E810E940A
:100620003901EECF88E090E0F4CF8BE39DE00197B5
:10063000F1F760E0809171020E940B0160E080910F
:1006400073020E940B01809172028F3F19F060E0EB
:100650000E940B0180917C0284FD34C063E08DE632
:1006600092E00E944902CBE4D6E4CE010197F1F773
:1006700063E08DE692E00E9449022197F1F763E082
:100680008DE692E00E94490283E592E00197F1F73E
:1006900062E08DE692E00E94490280917C028062D5
:1006A0000E94C90284E080937D028CE00E94C9020E
:1006B0000E94CF0282E080937E0286E0DF91CF919C
:1006C0000C94C90280620E94C9028BE496E40197EF
:1006D000F1F780917C0280620E94C90283E592E07A
:1006E0000197F1F780917C0280620E94C902D5CF08
:1006F00090918002691710F06FEF690FE62FF0E01C
:10070000E359FD4F9489890F80680C94C90241E038
:100710000E94760281E090E00895CF92DF92EF92FE
:10072000FF920F931F93CF93DF93CDB7DEB7A197BF
:100730000FB6F894DEBF0FBECDBF282F30E050E0DB
:1007400040E019A28E010F5D1F4F8AE0C82ED12C08
:10075000E12CF12CCA01B901A70196010E94F80908
:10076000605DF80162938F01211531054105510546
:1007700089F790E080E0309761F001900020E9F780
:100780003197AF01401B510BB8018DE692E00E94FA
:100790008C00A1960FB6F894DEBF0FBECDBFDF91DF
:1007A000CF911F910F91FF90EF90DF90CF90089520
:1007B000FC0101900020E9F73197AF01481B590B6C
:1007C000BC018DE692E00C948C000C94EA090C9428
:1007D000E209CF9390E080E00E94E703813009F4C2
:1007E000FDC00E94CF0260E080E00E94780383E2B7
:1007F00091E00E94D80310926B0210926A028091DD
:100800006A0290916B02813921E0920770F460E0F6
:1008100001960E94E50380916A0290916B02019615
:1008200090936B0280936A02EACF61E090E080E0EF
:100830000E94E50310926B0210926A0280916A0294
:1008400090916B02069768F5109269021092680207
:100850002091680230916902809102019091030118
:100860002430310578F4622F820F931F0E94E50334
:100870008091680290916902019690936902809339
:100880006802E6CF04969093030180930201809161
:100890006A0290916B02019690936B0280936A02B8
:1008A000CDCF82E00E94E200892B49F00E94D30163
:1008B00082E00E94E200892BD9F70E94C5010E94C4
:1008C000CF0260E080E00E94780384E391E00E9420
:1008D000D80362E080E00E94780381E491E00E9406
:1008E000D80368E572E080E090E00E948F010E94EA
:1008F000E101C82F8093540262E08CE00E947803EB
:100900008C2F0E948D0368E572E080E090E00E94E9
:100910008F01609154028EE690E00E94E5030E94F0
:10092000CF0260E080E00E9478038EE491E00E94B4
:10093000D80361E080E00E9478038AE591E00E949C
:10094000D80368EE73E080E090E00E948F0110927F
:100950006B0210926A02C0E080916A0290916B0271
:100960000697E0F5109269021092680220916802E1
:10097000309169028091000190910101223031058E
:10098000F0F4232B21F4CF5F6C2F0E94E5038091BC
:10099000680290916902019741F480910001909161
:1009A000010160E001960E94E50380916802909148
:1009B000690201969093690280936802D7CF0296EC
:1009C000909301018093000180916A0290916B02E3
:1009D000019690936B0280936A02BECFCF910895E7
:1009E000EF92FF921F93CF93DF93182F8EE690E044
:1009F0000E94E7038093540210926B0210926A02E5
:100A0000E12EF12CC0916A02D0916B02C430D10565
:100A100078F4C7018C0F9D1F0E94E703FE01EC597B
:100A2000FD4F80832196D0936B02C0936A02EACF78
:100A300080915F02809364028091600280936502DE
:100A400080916102809366028091620280936702C6
:100A500084E090E0909369028093680210926B02A8
:100A600010926A02C12FD0E080916A0290916B02CD
:100A70008430910590F4FC01EC59FD4F60818C0F9E
:100A80009D1F0E94E50380916A0290916B0201967E
:100A900090936B0280936A02E7CF0E94CF0260E0DE
:100AA00080E00E9478038FE591E00E94D8038AE0FD
:100AB00090E0909369028093680210926B0210920A
:100AC0006A02C0916A02D0916B02C430D105E8F489
:100AD00060E0809168020E947803CC59DD4F8881E4
:100AE0000E948D0380916802909169020196909313
:100AF00069028093680280916A0290916B0201966C
:100B000090936B0280936A02DCCF60EA7FE080E022
:100B100090E0DF91CF911F91FF90EF900C948F01A7
:100B2000CF93C82F8EE690E00E94E7038C1759F10F
:100B30000E94CF0260E082E00E9478038AE691E0A2
:100B40000E94D8030E94D30182E00E94E200892B18
:100B500049F4609154026F5F609354028EE690E016
:100B60000E94E50380915402C81303C0CF910C94F6
:100B7000C501873039F71092540260E08EE690E0AC
:100B80000E94E503DFCF90915402981311C00E9498
:100B9000CF0260E080E00E94780384E791E00E9449
:100BA000D80368E572E080E090E0CF910C948F016B
:100BB000CF9108951F920F920FB60F9211242F9389
:100BC0003F938F939F93AF93BF93809156029091E1
:100BD0005702A0915802B09159023091550223E07A
:100BE000230F2D3758F50196A11DB11D20935502F5
:100BF0008093560290935702A0935802B0935902E3
:100C000080915A0290915B02A0915C02B0915D02CA
:100C10000196A11DB11D80935A0290935B02A0938F
:100C20005C02B0935D02BF91AF919F918F913F9114
:100C30002F910F900FBE0F901F90189526E8230F4D
:100C40000296A11DB11DD2CFCF93DF9300D000D06B
:100C5000CDB7DEB7789484B5826084BD84B58160F9
:100C600084BD85B5826085BD85B5816085BD809177
:100C70006E00816080936E001092810080918100EF
:100C800082608093810080918100816080938100E7
:100C9000809180008160809380008091B1008460A9
:100CA0008093B1008091B00081608093B00080910A
:100CB0007A00846080937A0080917A0082608093C9
:100CC0007A0080917A00816080937A0080917A0026
:100CD000806880937A001092C10082E00E94D7025F
:100CE00060E080E00E94390160E081E00E9439010B
:100CF00085EE8093B30061E08CE00E94390161E0F1
:100D00008DE00E94390161E08BE00E943901809101
:100D1000B100887F8093B1008091B00083608093A0
:100D2000B0008091B1008093B1008091B0008068E4
:100D30008093B00010926B0210926A0200916A02D6
:100D400010916B020430110570F4F801E15EFE4F62
:100D500061E080810E9439010F5F1F4F10936B0289
:100D600000936A02EBCF10926B0210926A0200911C
:100D70006A0210916B020330110570F4F801E45E11
:100D8000FE4F60E080810E9439010F5F1F4F10937A
:100D90006B0200936A02EBCF60E082E00E943901AF
:100DA00060E08AE00E94390190E080E00E94E70361
:100DB000813061F50E94CF0260E080E00E947803FC
:100DC0008FE791E00E94D80361E080E00E94780301
:100DD00080E991E00E94D80361E08CE00E947803F2
:100DE00086E991E00E94D80380E00E94E20001972A
:100DF00009F042C081E080936C0280916C028130E6
:100E000039F460E090E080E00E94E5030E94E9038D
:100E10007724739480E0C82E80E0D82E92E0692E6B
:100E200064E670E080E090E00E948F010E94CF02B3
:100E300060E080E00E9478038BE991E00E94D80393
:100E400061E080E00E94780385EA91E00E94D80387
:100E500080E00E94E2000197B9F470926C028091E8
:100E60006C028130C9F0823009F483C1C114D1040D
:100E7000B9F20E940000D4CF81E00E94E200019705
:100E800009F0B2CF82E0B7CF81E00E94E200019783
:100E9000F9F660926C02E3CF0E94CF0260E082E03C
:100EA0000E9478038DE991E00E94D80361E082E01E
:100EB0000E94780382EB91E00E94D80364EF71E016
:100EC00080E090E00E948F010E94CF0260E080E00D
:100ED0000E9478038EEB91E00E94D80361E080E0ED
:100EE0000E9478038BEC91E00E94D80364EF71E0DC
:100EF00080E090E00E948F018AE00E94E200892B4E
:100F000009F43FC08EE690E00E94E70380935E0202
:100F100080916302811119C10E94CF0260E080E0DC
:100F20000E94780387ED91E00E94D80310926B0233
:100F300010926A0200916A0210916B02043011054E
:100F400009F46EC00E94E101F82EF801E15AFD4F4C
:100F5000808361E082E0800F0E9478038F2D0E94E1
:100F60008D0368EC70E080E090E00E948F0180913A
:100F70006A0290916B02019690936B0280936A02D1
:100F8000D9CF8AE00E94E200892B11F610926B0201
:100F900010926A02A0906A02B0906B0286E0A816D6
:100FA000B10408F0B5CF1092690210926802009166
:100FB00000011091010148018FEF881A980AE09012
:100FC0006802F090690282E0E816F104B0F4E114DE
:100FD000F10469F4C8010E94E70380935E028FEF79
:100FE000E81AF80AF0926902E0926802E8CFC401B8
:100FF0000E94E70380936302F2CF8091630288230B
:1010000009F48ACF0E5F1F4F109301010093000176
:101010008FEFA81AB80AB0926B02A0926A02BACFF8
:101020000E94CF0260E080E00E94780380915E021F
:101030000E948D0364EF71E080E090E00E948F01D8
:1010400080915E02833009F45EC028F5813051F151
:10105000823009F456C00E94CF0260E080E00E9416
:10106000780387EE91E00E94D80361E080E00E945F
:10107000780384EF91E00E94D80364EF71E080E090
:1010800090E00E948F0160E090E080E00E94E50324
:101090000E94E90318C08530D1F1B8F18630D9F645
:1010A00089E20BC085EE91E00E94D80364EF71E005
:1010B00080E090E00E948F0181E00E94F004809126
:1010C0005E020E9490058BEF91E00E94D80364EFCE
:1010D00071E080E090E00E948F018AE00E94E200CF
:1010E000892B09F4C3CE80915E02833011F188F41C
:1010F0008130C9F061E0823009F0B8CE85E690E039
:1011000015C08BE0DACF85E1D8CF8FE1D6CF8AE06A
:10111000D4CF8530B1F088F061E0863009F0A6CEFA
:101120008DE690E003C061E083E690E00E94E50375
:101130009DCE61E087E690E0F9CF61E089E690E03E
:10114000F5CF61E08BE690E0F1CF813009F08ECEF3
:101150000E94CF0260E080E00E94780384E092E089
:101160000E94D80360EA7FE080E090E00E948F0157
:101170007DCE0E94CF0260E082E00E94780384E18D
:1011800092E00E94D80361E082E00E94780382EB43
:1011900091E00E94D80364EF71E080E090E00E944B
:1011A0008F010E94CF0260E080E00E9478038FE10F
:1011B00092E00E94D80310926B0210926A02009192
:1011C0006A0210916B020430110508F50E94E101DA
:1011D000F82EE1E0F0E0EC0FFD1FE00FF11F80833F
:1011E00061E0802F0E9478038F2D0E948D0362E8BA
:1011F00070E080E090E00E948F0180916A029091FF
:101200006B02019690936B0280936A02D8CF109282
:101210006B0210926A02912CE0906A02F0906B02CD
:1012200086E0E816F10408F089C010926902109275
:101230006802A0900201B090030100916802109131
:1012400069020430110580F4C8018A0D9B1D0E94BB
:10125000E703F801EC59FD4F80830F5F1F4F109398
:10126000690200936802E9CF109269021092680245
:10127000A4E6B2E0FE01319690E080E010E0843018
:101280009105F1F05D9141919C012F5F3F4F11E07D
:101290005417A1F0909369028093680284E0A80E2D
:1012A000B11CB0920301A092020193948FEFE81A4F
:1012B000F80AF0926B02E0926A02AECFC901DFCF6A
:1012C0009093690280936802113041F764EF71E0F6
:1012D00080E090E00E948F010E94CF0260E080E0F9
:1012E0000E94780380E392E00E94D80364EF71E0EB
:1012F00080E090E00E948F011130A9F5892D0E94B5
:101300008D036EE571E080E090E00E948F01892DF1
:101310000E9490058AE00E94E200892B09F4A6CD84
:1013200083E09816D1F0891558F081E0981699F06D
:1013300082E060E0981609F4E1CE98CD10E0C6CFC7
:1013400085E0981671F0981650F086E060E09816E7
:1013500009F4E6CE8BCD60E0E7CE60E0EBCE60E056
:10136000EDCE60E0EFCE0E94CF0260E080E00E9410
:1013700078038DE392E00E94D80361E080E00E9450
:10138000780388E492E0ECCEEDE6F2E0138212827C
:1013900084E191E0918380838EE084838FEF858365
:1013A0008FE0868380E1878381E1808782E1818786
:1013B00083E182871386148615861686178681E058
:1013C0000C94D702F999FECF92BD81BDF89A992766
:1013D00080B50895262FF999FECF1FBA92BD81BD21
:1013E00020BD0FB6F894FA9AF99A0FBE01960895A7
:1013F000A1E21A2EAA1BBB1BFD010DC0AA1FBB1F19
:10140000EE1FFF1FA217B307E407F50720F0A21B8A
:10141000B30BE40BF50B661F771F881F991F1A94F7
:1014200069F760957095809590959B01AC01BD0121
:10143000CF010895EE0FFF1F0590F491E02D099460
:04144000F894FFCF4E
:101444006200010001020304050607080900000008
:101454000000000087038C00C201C10107080903D2
:101464000405064D454D4F525920494E4954204DCF
:101474004F444500456E746572204E756D62657209
:1014840000496E7469616C5F7061636B3A004D452D
:101494004D4F525920494E495400444F4E4500592E
:1014A4006F757220436F64653A0043617220466F22
:1014B400756E64005041434B20464F554E440053D3
:1014C400454C204D454D4F525920494E49543F00FB
:1014D400312E59455300322E4E4F00312E4E657732
:1014E4002043617200322E52657475726E2043611E
:1014F400720049532053656C6563746564005345F9
:101504004152434820454D505459005041434B2EBD
:10151400202E202E202E00456E74657220436172A9
:10152400204E6F3A0031004D454D454F52592049E8
:101534004E495400504C454153450067686A676AF8
:1015440068676A005041524B494E47204953204630
:10155400554C4C0052455455524E2043415200774D
:101564007269746520796F757220636F64653A00DF
:10157400536561726368202E202E202E00536F72F3
:10158400727920436F6465004E6F7420466F756EE8
:021594006400F1
:00000001FF
